:100000000C94FE000C9410010C9410010C9410013F
:100010000C9410010C9410010C9410010C9410011C
:100020000C9410010C9410010C9410010C9410010C
:100030000C9410010C9410010C9410010C941001FC
:100040000C9410010C9410010C9410010C941001EC
:100050000C9410010C9410010C9410010C941001DC
:100060000C9410010C9410010C9410010C941001CC
:100070000C9410010C9410010C9410010C941001BC
:100080000C9410010C9410010C9410010C941001AC
:100090000C9410010C9410010C9410010C9410019C
:1000A0000C9410010C9410010C9410010C9410018C
:1000B0000C9410010C9410010C9410010C9410017C
:1000C0000C9410010C9410010C9410010C9410016C
:1000D0000C9410010C9410010C9410010C9410015C
:1000E0000C9410010C9410010C9410010C9410014C
:1000F0000C9410010C9410010C9410010C9410013C
:100100000C9410010C9410010C9410010C9410012B
:100110000C9410010C9410010C9410010C9410011B
:100120000C9410010C9410010C9410010C9410010B
:100130000C9410010C9410010C9410010C941001FB
:100140000C9410010C9410010C9410010C941001EB
:100150000C9410010C9410010C9410010C941001DB
:100160000C9410010C9410010C9410010C941001CB
:100170000C9410010C9410010C9410010C941001BB
:100180000C9410010C9410010C9410010C941001AB
:100190000C9410010C9410010C9410010C9410019B
:1001A0000C9410010C9410010C9410010C9410018B
:1001B0000C9410010C9410010C9410010C9410017B
:1001C0000C9410010C9410010C9410010C9410016B
:1001D0000C9410010C9410010C9410010C9410015B
:1001E0000C9410010C9410010C9410010C9410014B
:1001F0000C9410010C9410010C94100111241FBEDA
:10020000CFEFCDBFD7E2DEBF20E2A0E0B0E201C079
:100210001D92A730B207E1F70E9478010C947B0190
:100220000C940000AF92CF92EF920F93A12CC12CAF
:10023000E12C00E020E040E456E060EC78E080E073
:1002400090E20E943F010F91EF90CF90AF90089500
:100250001F93CF93DF93C0E4D6E010E1198388E3C6
:100260008C8B1D830E9412011E8360E080E090E26F
:100270000E946B011D83DF91CF911F910895AF9272
:10028000CF92EF920F93FC0160837183428353837B
:100290001482CC2011F090E801C090E09A2990647B
:1002A000222311F080E201C080E0A82EA92A0A29A9
:1002B0000061DB010C93A081B1811196EC92158253
:1002C00016820280F381E02D80EA81830F91EF9006
:1002D000CF90AF900895DC01ED91FC91119763836D
:1002E000ED91FC91119792819923D4F78381089520
:0A02F0000E942801FFCFF894FFCF11
:00000001FF
